S01700004763634170706C69636174696F6E312E737265635B
S11300000C942A000C9447000C9447000C9447006D
S11300100C9447000C9447000C9447000C94470040
S11300200C9447000C9447000C9447000C94470030
S11300300C94AB060C949A070C9447000C94C107DB
S11300400C9447000C9447000C9447000C94470010
S11300500C94470011241FBECFE5D8E0DEBFCDBF0E
S113006012E0A0E6B0E0E4EDFFE002C005900D92DE
S1130070AE34B107D9F722E0AEE4B2E001C01D927C
S1130080A637B207E1F70E9471050C94E8070C94B7
S113009000008FEF0E94D2060895FF920F931F93E2
S11300A0CF93DF93C82F8B01D42F9065F92E0E9434
S11300B0E5068F2D0E9408078C2F0E943207C0E0AE
S11300C007C0F801EC0FF11D80810E943207CF5F59
S11300D0CD17B8F30E94010780E49CE90197F1F77A
S11300E0DF91CF911F910F91FF900895EF92FF92AE
S11300F00F931F93CF93DF93F82E8B01D42FC92F27
S1130100C0650E94E5068C2F0E9408078F2D0E946F
S113011032070E94F3068C2F0E941D07C0E012C014
S11301202C2F30E08D2F90E001972817390711F418
S11301300E944A077801EC0EF11C0E943E07F70169
S11301408083CF5FCD1760F3C0E4DCE9CE01019773
S1130150F1F70E9401072197F1F70E944607DF910A
S1130160CF911F910F91FF90EF900895EF92FF921E
S11301700F931F93CF93DF9300D000D0CDB7DEB79A
S11301808C01E62E30E0F12C25C08F2D90E043E069
S1130190BE016F5F7F4F880F991F880F991F0E94C0
S11301A0760030E020E011C0822F90E0F801E80FE3
S11301B0F91F4081E1E0F0E0EC0FFD1FE80FF91FAB
S11301C08081481304C03F5F2F5F233068F33330CE
S11301D019F0F394FE14C8F2333021F00F2EFAEF25
S11301E0FF2EF02D8F2D0F900F900F900F90DF9119
S11301F0CF911F910F91FF90EF90089590E043E00D
S1130200880F991F880F991F0E944D000895CF935E
S1130210C0E009C0EC2FF0E0EC59FF4F61E08081B1
S11302200E94C305CF5FC430A8F3C0E009C0EC2F1F
S1130230F0E0E05AFF4F62E080810E94C305CF5F87
S1130240C430A8F3CF910895BF92CF92DF92EF927A
S1130250FF920F931F93CF93DF931F92CDB7DEB717
S1130260BB24BA94E12C40C0CE2CD12CF601E05A28
S1130270FF4F60E080810E943F06F12C2AC00F2DC1
S113028010E0F801EC59FF4FBE016F5F7F4F808192
S11302900E947106898181111BC0F601EE0FFF1FB8
S11302A0EE0FFF1FE25CFD4FE00FF11FB08009C0AD
S11302B0BE016F5F7F4FF801EC59FF4F80810E94B0
S11302C0710689818823A1F380EA9FE00197F1F701
S11302D0F39483E08F1598F6F601E05AFF4F61E03E
S11302E080810E943F06E39483E08E1508F0BCCF22
S11302F08B2D0F90DF91CF911F910F91FF90EF9075
S1130300DF90CF90BF900895CF93C82F682F61706E
S113031088E00E943F06C1FB662760F989E00E94DD
S11303203F06C2FB662760F98AE00E943F06C3FBD2
S1130330662760F98CE00E943F06CF9108951F93D1
S1130340CF93DF93182F60E083E00E943F06812F54
S113035082958F700E94840161E082E00E943F06D2
S1130360C0EADFE0CE010197F1F760E082E00E948D
S11303703F06CE010197F1F7812F0E94840161E0CD
S113038082E00E943F06CE010197F1F760E082E02F
S11303900E943F062197F1F7DF91CF911F910895B5
S11303A0CF9363E083E00E94C30563E082E00E9490
S11303B0C30563E088E00E94C30563E089E00E940E
S11303C0C30563E08AE00E94C30563E08CE00E94F9
S11303D0C3058EE591E005C0E0E9F1E03197F1F75E
S11303E001970097C9F760E083E00E943F0682E02E
S11303F00E94840161E082E00E943F0680EA9FE05F
S11304000197F1F760E082E00E943F0688E20E94D3
S11304109F01C0EF8C2F8A95F1F78FE00E949F0116
S1130420CA95F1F781E00E949F0180E49FE1019762
S1130430F1F786E00E949F01CF9108951F93CF9317
S1130440DF93182F61E083E00E943F06812F82959D
S11304508F700E94840161E082E00E943F06C0EA3E
S1130460DFE0CE010197F1F760E082E00E943F06F1
S1130470CE010197F1F7812F0E94840161E082E0AF
S11304800E943F06CE010197F1F760E082E00E94EE
S11304903F062197F1F7DF91CF911F9108950F93B4
S11304A01F93CF938C01C0E007C00E941E0280EA14
S11304B09FE00197F1F7CF5FF801EC0FF11D808108
S11304C08111F3CFCF911F910F91089581E00E9484
S11304D09F010895813039F4603128F480E8860F53
S11304E00E949F010895823039F4603128F480EC31
S11304F0860F0E949F010895833039F4603128F4F7
S113050084E9860F0E949F010895843031F460319C
S113051020F484ED860F0E949F01089581E691E006
S11305200E946A078DE00E94620784E592E00E94BF
S11305307D07809371028DE00E94620708950E94F6
S11305408E0280914E0290E043E064E572E0880FF1
S1130550991F880F991F0E944D0080914E028F5F52
S113056080934E0280916F028F5F80936F02089593
S11305708FE40E94A70680912502893551F40E94D8
S1130580660281EC90E00E944F028EE48093250283
S113059008958E3449F40E9466028DE890E00E942A
S11305A04F0289E58093250208958DE40E94A706F1
S11305B080912302893551F40E9466028EE990E00D
S11305C00E944F028EE48093230208958E3449F4EE
S11305D00E94660288E690E00E944F0289E58093BB
S11305E02302089581E40E94A7068091240289359C
S11305F051F40E94660283EB90E00E944F028EE465
S11306008093240208958E3449F40E9466028DE793
S113061090E00E944F0289E58093240208950E948D
S1130620660284E391E00E944F0260E082E00E944F
S11306306A0280E291E00E944F0260E083E00E943F
S11306406A028CE091E00E944F0260E084E00E9424
S11306506A0288EF90E00E944F0208950F931F935F
S1130660CF93DF938C01EB018DE00E94620780E75A
S113067091E00E946A078DE00E94620784E592E09F
S11306800E947D07809371028DE00E94620782E5DB
S113069091E00E946A078DE00E94620781E692E081
S11306A00E947D07809371028DE00E946207609131
S11306B06F02C8010E94B600BE010E94FE00DF91D5
S11306C0CF911F910F910895FF920F931F93CF9392
S11306D0DF9300D000D0CDB7DEB78C01F62E8EE3C9
S11306E089838A838B838DE28C8380E791E00E94E7
S11306F06A078DE00E94620784E592E00E947D070C
S1130700809371028DE00E9462076F2DC8010E94E0
S1130710B600BE016F5F7F4F0E94FE000F900F90E6
S11307200F900F90DF91CF911F910F91FF9008953B
S1130730CF930E94660284E391E00E944F0260E03E
S113074082E00E946A0280E291E00E944F0260E02F
S113075083E00E946A028CE091E00E944F0260E014
S113076084E00E946A0288EF90E00E944F02CFEF7B
S113077030C00E942401C82F8F3F59F1823339F0D1
S1130780833341F0813349F40E94B80216C00E94B9
S1130790F20213C00E94D50210C081E491E00E94CD
S11307A04F0280E197E205C0E0E9F1E03197F1F70B
S11307B001970097C9F70E94660280E197E205C09D
S11307C0E0E9F1E03197F1F701970097C9F70E944A
S11307D00F03CF3271F6CF910895CF93DF93EC01DD
S11307E060916F020E94B6009B819D3211F490E0EB
S11307F001C091E08A3F69F091110BC010924F0241
S113080081E090E090935102809350020E949803FB
S113081067C080914F02823009F443C00E9466028F
S113082089EE90E00E944F0284EC99E005C0E0E973
S1130830F1E03197F1F701970097C9F70E9466023A
S113084084EC99E005C0E0E9F1E03197F1F7019714
S11308500097C9F78FED90E00E944F0284EC99E075
S113086005C0E0E9F1E03197F1F701970097C9F786
S11308700E94660281E691E00E944F028CEC91E0B6
S11308800E946A078DE00E94620780914F028F5F89
S113089080934F0281E090E0909351028093500244
S11308A01FC08230E9F482EA91E00E946A078DE079
S11308B00E94620780ED90E00E944F0288E893E175
S11308C005C0E0E9F1E03197F1F701970097C9F726
S11308D00E94660261E086E10E943F0610924F0288
S11308E080E007C0E82FF0E0E25EFD4F9DE29083D8
S11308F08F5F8430B8F3DF91CF91089563E086E190
S11309000E94C30563E084E00E94C30563E08DE0B8
S11309100E94C30561E08EE00E94C30563E08FE09E
S11309200E94C3050E94D0010E9407010E944E0745
S11309300E948B060E94490008950E94240180931E
S113094022028D3329F48EE192E00E94ED030FC060
S11309508F3F69F08AE20E941E02E09152020E2E3D
S1130960000CFF0BE25EFD4F809122028083109207
S1130970520208950E9466028AE991E00E944F02A1
S113098060E082E00E946A0283E991E00E944F02E3
S11309900E946607809364028DE00E9462070E94B1
S11309A0660280916402813409F051C083E891E0C9
S11309B00E944F0283E192E00E946A078DE00E9448
S11309C0620785E092E00E946A078DE00E94620758
S11309D086EF91E00E946A078DE00E9462078BEE29
S11309E091E00E946A078DE00E9462070E946607F8
S11309F0809364028DE00E946207809164028434D3
S1130A0019F580E291E00E946A078DE00E94620776
S1130A108CE091E00E946A078DE00E94620788EFF3
S1130A2090E00E946A078DE00E9462078DED91E0DC
S1130A300E946A078DE00E9462070E946607809305
S1130A4064028DE00E9462070E947F050895853547
S1130A5009F03FC083E891E00E944F0284EC99E0E2
S1130A6005C0E0E9F1E03197F1F701970097C9F784
S1130A702BC00E942401809322028F3F29F18D33E1
S1130A8091F40E9466028EE192E00E94ED031092BE
S1130A90520202C00E949D04809150029091510222
S1130AA0892BC1F311C08AE20E941E028091520276
S1130AB0E82F082E000CFF0BE25EFD4F90912202FE
S1130AC090838F5F80935202809122028F3289F645
S1130AD0089581E491E00E946A078DE00E94620714
S1130AE008950E947E040E94BA040E9466078093BF
S1130AF064028DE00E9462070E94BA04F6CF8091DE
S1130B006402823499F018F4813431F034C08334AF
S1130B10F1F0813551F12FC00E949F028CE391E0E6
S1130B200E946A078DE00E94620708958DE00E948A
S1130B30620760916F0284E592E00E9464038CE393
S1130B4091E00E946A078DE00E946207089561E6C1
S1130B5072E084E592E00E942E038CE391E00E940F
S1130B606A078DE00E94620708958DE00E94620783
S1130B700E94BA04089581E491E00E946A078DE01E
S1130B800E9462070895E82FE695E695E69587703A
S1130B90613039F0E0F06230E1F1633009F45AC0B9
S1130BA00895F0E0EE0FFF1FEA5CFD4F0190F08125
S1130BB0E02D408121E030E0B90102C0660F771FCB
S1130BC08A95E2F7CB0180958423808308952E2FA4
S1130BD030E0220F331FF901EA5CFD4F0190F081F0
S1130BE0E02D608141E050E0DA0102C0AA0FBB1F92
S1130BF08A95E2F7CD019A2F909596239083F90177
S1130C00E25DFD4F0190F081E02D9081892B80837E
S1130C1008952E2F30E0220F331FF901EA5CFD4FB7
S1130C200190F081E02D608141E050E0DA0102C0E2
S1130C30AA0FBB1F8A95E2F7CD01962F982B9083BC
S1130C40F901E25DFD4F0190F081E02D9081892B47
S1130C5080830895F0E0EE0FFF1FEA5CFD4F0190E2
S1130C60F081E02D408121E030E0B90102C0660F3F
S1130C70771F8A95E2F7CB01842B80830895E82FB0
S1130C80E695E695E69587706130A9F4F0E0EE0FFD
S1130C90FF1FE25DFD4F0190F081E02D408121E0D6
S1130CA030E0B90102C0660F771F8A95E2F7CB01E5
S1130CB0842B80830895F0E0EE0FFF1FE25DFD4F6B
S1130CC00190F081E02D408121E030E0B90102C0C3
S1130CD0660F771F8A95E2F7CB0180958423808382
S1130CE00895E82FE695E695E695282F2770F0E01D
S1130CF0EE0FFF1FEA5DFD4F0190F081E02D908122
S1130D00892F90E002C0959587952A95E2F7817026
S1130D10FB01808308958DB18F778DB98DB1806289
S1130D208DB98DB180618DB98DB1877F8DB98DB14C
S1130D3084608DB98DB18E7F8DB98DB182608DB98E
S1130D408EB18E7F8EB98DB180648DB908958FB9BF
S1130D50779BFECF08951F920F920FB60F92112426
S1130D602F933F934F935F936F937F938F939F93AF
S1130D70AF93BF93EF93FF93E0917202F0917302EC
S1130D800995FF91EF91BF91AF919F918F917F91C1
S1130D906F915F914F913F912F910F900FBE0F90E4
S1130DA01F901895882314F0880F82B981B18E7F23
S1130DB081B981B18D7F81B98CE080B986B78064B7
S1130DC086BF86B7846086BF089586B7806286BF73
S1130DD086B7806886BF06B607FEFDCF81B1887FDF
S1130DE08830E1F7089586B7806286BF86B7806849
S1130DF086BF06B607FEFDCF81B1887F8031E1F75B
S1130E00089586B7806186BF86B7806886BF0895D7
S1130E10882394F0880F83B983B18E7F83B986B712
S1130E208F7D86BF86B7806886BF06B607FEFDCF76
S1130E3081B1887F8831E1F70895882394F0880F81
S1130E4083B983B1816083B986B78F7D86BF86B746
S1130E50806886BF06B607FEFDCF81B1887F8034E7
S1130E60E1F7089583B986B7806886BF06B607FEA2
S1130E70FDCF81B1887F8832E1F7089586B7806815
S1130E8086BF06B607FEFDCF83B1089586B780649A
S1130E9086BF089586B78F7B86BF08958AB18B7FFE
S1130EA08AB98AB18F778AB98AB18F7B8AB986E881
S1130EB080BD87E689B98AB180618AB98AB18860C0
S1130EC08AB908955D9BFECF8CB908955F9BFECFD0
S1130ED08CB108950F931F93CF938C01C0E003C08E
S1130EE00E946207CF5FF801EC0FF11D8081811130
S1130EF0F7CFCF911F910F910895EF92FF920F9327
S1130F001F93CF938C01C0E07801EC0EF11C0E947A
S1130F106607F7018083CF5FF801EC0FF11D31976D
S1130F2080818D3289F78C2FCF911F910F91FF9083
S1130F30EF9008951F920F920FB60F9211242F93E2
S1130F403F934F935F936F937F938F939F93AF934D
S1130F50BF93EF93FF93E0917402F09175020995AA
S1130F60FF91EF91BF91AF919F918F917F916F917D
S1130F705F914F913F912F910F900FBE0F901F9053
S1130F8018951F920F920FB60F9211242F933F932F
S1130F904F935F936F937F938F939F93AF93BF937D
S1130FA0EF93FF93E0917402F09175020995FF911C
S1130FB0EF91BF91AF919F918F917F916F915F91CD
S1130FC04F913F912F910F900FBE0F901F90189546
S1070FD0F894FFCFBF
S1130FD4151413121F1E1D1B4D6564696120506C8A
S1130FE46179657220436C6F73656420005468658D
S1130FF420414320436C6F7365642020005468656A
S113100420446F6F7220436C6F73656420004D65D8
S113101464696120506C61796572204F70656E65F6
S1131024642000546865204143204F70656E20207D
S11310340054686520446F6F72204F70656E200001
S11310444F7574204F6620547269616C7320005488
S1131054727920416761696E0057726F6E67205020
S1131064617373776F726400332D4F70656E204D16
S11310746564696120506C6179657200322D4F702A
S1131084656E2041432000000000000000000000C1
S1131094312D4F70656E20446F6F72200000000084
S11310A40000000057656C636F6D6500446F6E65E6
S11310B400496E76616C696420436F6D6D616E6482
S11310C42000456E746572204E65772050617373F9
S11310D400456E7465722050617373000000000053
S11310E4456E746572204F6C642050617373776F1E
S11310F4726400456E7465722050617373776F7205
S1131104643A00552D5573657200412D41444D498F
S11311144E005761726E696E672C536F6D656F6E06
S11311246520697320747279696E6720746F207204
S11311346F626520796F7521212120004661696CF5
S1131144656420746F204C6F67696E2000456E746B
S11311546572204F7074696F6E3A00442D436F6E4C
S113116474696E756500432D4368616E676520502C
S11311746173732000422D44656C65746520557356
S1131184657200412D4144442055736572002D2D30
S11311942D2DFF59595939003600330030003B00D6
S11311A43800350032003A0037003400310031325F
S11111B4332D3435362B3738392D3D30632F2B
S9030000FC
